:1078000033C0000052C0000050C000004EC0000055
:107810004CC000004AC0000048C0000046C0000044
:1078200044C0000042C0000040C000003EC0000054
:107830003CC000003AC0000038C0000036C0000064
:107840008DC1000032C0000030C000002EC000001A
:107850002CC000002AC0000028C0000026C0000084
:1078600025C0000022C0000011241FBECFEFD8E0C9
:10787000DEBFCDBF14BEE0E6F0E088E18083108279
:1078800011E0A0E0B1E0EEE2FDE702C005900D924C
:10789000AA31B107D9F721E0AAE1B1E001C01D92F8
:1078A000AE39B207E1F7ADD140C2AACF1F920F9215
:1078B0000FB60F9211242F933F934F935F936F93C3
:1078C0007F938F939F93AF93BF93CF93DF93EF9368
:1078D000FF938091B900887F883A09F4D7C060F49B
:1078E0008038A1F0803A09F417C1803609F023C12D
:1078F00010921A012C9A11C1803C09F40DC1883FE5
:1079000009F40FC1883B09F016C1C3C09091BB00B8
:1079100080911A01813011F160F08430E8F520E0A7
:1079200030E030911B01292B30931C0120931B0167
:1079300046C0992329F0933038F481E080931A01EE
:107940001092000120E404C081E280939D0120E0B8
:1079500090939D0180E02223B9F139C080919D016F
:10796000813019F0823039F02EC0903861F581E213
:1079700080939D0128C080931A01911102C082E179
:1079800003C0913029F482E280939D0180E0D1C050
:107990009230C9F482E3F8CF20919D01223239F070
:1079A000223389F48F5F80931A0182E0C2C0E82FEE
:1079B000F0E0E75EFE4F9083833808F0B8C08F5F39
:1079C00080931A01E3CF80E010921A0120E03091F9
:1079D000BC003068232B2093BC00813009F03EC0EE
:1079E00080911B0190911C01811528E7920708F0F6
:1079F000A2C023E0FC0120935700E89507B600FCE5
:107A0000FDCFADE1B1E0BC016D51714041E0FD0140
:107A1000E60FF71F2C911296ED012197588130E067
:107A2000352B090140935700E8951124F1E0AD3959
:107A3000BF0769F79C0120583F4F30931C012093EA
:107A40001B0125E0FC0120935700E89507B600FCD8
:107A5000FDCF81E180935700E8956DC0823009F039
:107A60006AC080911B0181BD80911C0182BD90BDC7
:107A700080911B0190911C01019690931C018093B1
:107A80001B01FA9AF99AF999FECF55C010921A0182
:107A90002C9A80919D01823119F160F48130C1F5F9
:107AA00080911A01E82FF0E0E75FFE4FE0818F5FE1
:107AB0008F701FC0823201F1823351F580911B011A
:107AC00081BD80911C0182BDF89A80911B0190912B
:107AD0001C01019690931C0180931B01E0B519C015
:107AE00080911A01E82FF0E0EF5FFE4FE0818F5F99
:107AF000877080931A010DC0E0911B01F0911C0169
:107B0000CF01019690931C0180931B01E49101C069
:107B1000EFEFE093BB0001C02C988091BC00806C1B
:107B200003C08091BC00806D8093BC0004C081E0E4
:107B30004BCF20E44CCFFF91EF91DF91CF91BF91DC
:107B4000AF919F918F917F916F915F914F913F91F5
:107B50002F910F900FBE0F901F9018951F920F92AC
:107B60000FB60F9211248F939F938CE386BD95B12E
:107B700080E2892785B980910001823020F0815010
:107B80008093000105C0813019F481E280939D014A
:107B90009F918F910F900FBE0F901F90189529986D
:107BA000219AF8946150710908F423C0FC010190F6
:107BB000008007D0029005D001900190019001D083
:107BC00016C007D006D005D004D003D002D001D013
:107BD00000C0299A001C0000000008F0299800004D
:107BE000000000000000000008F429980895CF016B
:107BF000D9CF78948FE391E00197F1F700C00000AE
:107C00000895CF93DF93CDB7DEB7C854D1090FB62F
:107C1000F894DEBF0FBECDBF80E384B92D9A10E08B
:107C20007E012BE4E20EF11CFE013396812F80953C
:107C3000DF0112971C9311961C9280833396EE15E8
:107C4000FF05B1F768E170E0CE010196A8DF8FEF84
:107C500090E722E0815090402040E1F700C0000012
:107C60001B5F143009F71FEFFE013396812F8095BB
:107C7000DF0112971C9311961C9280833396EE15A8
:107C8000FF05B1F768E170E0CE01019688DF8FEF64
:107C900090E722E0815090402040E1F700C00000D2
:107CA00015501B3F09F781E085BF92E095BF95E035
:107CB00095BD80936E0082E58093BA0085E4809341
:107CC000BC00789480919D018132E1F7F894109284
:107CD000BC0010926E0015BC81E085BF15BE15B8C2
:107CE0008AE081BD12BCF89A90B5923541F48BE0E0
:107CF00081BD12BCF89A90B591110AC010C081BD27
:107D000012BC82E580BDFA9AF99AF999FECFEFCFBD
:107D100081BD12BC10BCFA9AF99AF999FECFE0E045
:0E7D2000F0E000003197E9F70995F894FFCFE5
:107D2E00C81E950F8078000400545749424F4F5497
:0A7D3E006D3332387076322E3100BA
:040000030000780081
:00000001FF
